C00000000010000000010SO212JN A  0IBM                            
C00000000050000000009BB104BX A  0Clarets Merchandise            
E00000000030000000005NNNSHEPPA    Shep                          
E00000000080000000004YYNLIONTMR   J. MORRIS                     
H00000000040000000006HOUSE          5 001500000SO211UP          
H00000000060000000007FARM           00403750000SO529ED HOME FARM
H00000000090000000008FLAT           1 000260000E15WW            
M00000000020000000001FORD           KA             085000LL60LOO
M00000000050000000003DENNIS         ENGINE         023500FIRE1  
M00000000100000000002VOLKSWAGEN     BEETLE         000600A567WWR
