0000000001ANDREW    PANDY               1950-07-11                    34  PI101O     01962 811234        07799 123456        A.PANDY@BEEBHOUSE.COM                                                                               
0000000002SCOTT     TRACEY              1965-09-30                     1  TB14TV     001 911911                              REFROOM@TBHOLDINGS.COM                                                                              
0000000003JOHN      NOAKES              1934-03-06                    70  HX116B     0207 325656         09008 329855        Noaksey@beebhouse.com                                                                               
0000000004LOUIE     PUG                 1969-09-06                    21  PP159D     0208 344344                                                                                                                                 
0000000005GRAHAM    CUTHBERT            1967-01-03                    55  TR68BK     0208 344344         01101 499787        A.Cut@CG.co.uk                                                                                      
0000000006BRIAN     CANT                1933-07-12                    58  IP221P     01855 122134                            CANT@beebhouse.com                                                                                  
0000000007TROY      TEMPEST             1964-10-04                    48  ST106R                                             TROYT@BUSCOMM.COM                                                                                   
0000000008JOHNNY    MORRIS              1961-06-20                    72  BS83HA     0345 245245         0345 245245         JM@ZOOLAND.CO.UK                                                                                    
0000000009MICKY     MURPHY              1966-01-03                    51  CA316R                                                                                                                                                 
0000000010SUSAN     STRANKS             1938-12-02                    68  W1A4WW     0207 845845                                                                                                                                 